{
  "contractName": "Tracer",
  "abi": [
    {
      "constant": false,
      "inputs": [
        {
          "name": "i",
          "type": "address"
        },
        {
          "name": "lo",
          "type": "string"
        },
        {
          "name": "la",
          "type": "string"
        },
        {
          "name": "p",
          "type": "bool"
        },
        {
          "name": "n",
          "type": "string"
        }
      ],
      "name": "UpdateTrail",
      "outputs": [],
      "payable": false,
      "stateMutability": "nonpayable",
      "type": "function"
    },
    {
      "constant": true,
      "inputs": [
        {
          "name": "",
          "type": "address"
        }
      ],
      "name": "Tracks",
      "outputs": [
        {
          "name": "lon",
          "type": "string"
        },
        {
          "name": "lat",
          "type": "string"
        },
        {
          "name": "passed",
          "type": "bool"
        },
        {
          "name": "id",
          "type": "string"
        }
      ],
      "payable": false,
      "stateMutability": "view",
      "type": "function"
    },
    {
      "constant": false,
      "inputs": [
        {
          "name": "i",
          "type": "address"
        }
      ],
      "name": "GetTrail",
      "outputs": [
        {
          "name": "",
          "type": "string"
        },
        {
          "name": "",
          "type": "string"
        },
        {
          "name": "",
          "type": "bool"
        },
        {
          "name": "",
          "type": "string"
        }
      ],
      "payable": false,
      "stateMutability": "nonpayable",
      "type": "function"
    }
  ],
  "bytecode": "0x6060604052341561000f57600080fd5b610a5d8061001e6000396000f300606060405260043610610057576000357c0100000000000000000000000000000000000000000000000000000000900463ffffffff1680639d521c131461005c578063beeaefab14610169578063e7d1063314610355575b600080fd5b341561006757600080fd5b610167600480803573ffffffffffffffffffffffffffffffffffffffff1690602001909190803590602001908201803590602001908080601f0160208091040260200160405190810160405280939291908181526020018383808284378201915050505050509190803590602001908201803590602001908080601f01602080910402602001604051908101604052809392919081815260200183838082843782019150505050505091908035151590602001909190803590602001908201803590602001908080601f016020809104026020016040519081016040528093929190818152602001838380828437820191505050505050919050506104ea565b005b341561017457600080fd5b6101a0600480803573ffffffffffffffffffffffffffffffffffffffff169060200190919050506105de565b604051808060200180602001851515151581526020018060200184810384528881815460018160011615610100020316600290048152602001915080546001816001161561010002031660029004801561023b5780601f106102105761010080835404028352916020019161023b565b820191906000526020600020905b81548152906001019060200180831161021e57829003601f168201915b50508481038352878181546001816001161561010002031660029004815260200191508054600181600116156101000203166002900480156102be5780601f10610293576101008083540402835291602001916102be565b820191906000526020600020905b8154815290600101906020018083116102a157829003601f168201915b50508481038252858181546001816001161561010002031660029004815260200191508054600181600116156101000203166002900480156103415780601f1061031657610100808354040283529160200191610341565b820191906000526020600020905b81548152906001019060200180831161032457829003601f168201915b505097505050505050505060405180910390f35b341561036057600080fd5b61038c600480803573ffffffffffffffffffffffffffffffffffffffff16906020019091905050610618565b6040518080602001806020018515151515815260200180602001848103845288818151815260200191508051906020019080838360005b838110156103de5780820151818401526020810190506103c3565b50505050905090810190601f16801561040b5780820380516001836020036101000a031916815260200191505b50848103835287818151815260200191508051906020019080838360005b83811015610444578082015181840152602081019050610429565b50505050905090810190601f1680156104715780820380516001836020036101000a031916815260200191505b50848103825285818151815260200191508051906020019080838360005b838110156104aa57808201518184015260208101905061048f565b50505050905090810190601f1680156104d75780820380516001836020036101000a031916815260200191505b5097505050505050505060405180910390f35b6104f2610927565b84816000018190525083816020018190525082816040019015159081151581525050818160600181905250806000808873ffffffffffffffffffffffffffffffffffffffff1673ffffffffffffffffffffffffffffffffffffffff1681526020019081526020016000206000820151816000019080519060200190610578929190610964565b506020820151816001019080519060200190610595929190610964565b5060408201518160020160006101000a81548160ff02191690831515021790555060608201518160030190805190602001906105d2929190610964565b50905050505050505050565b6000602052806000526040600020600091509050806000019080600101908060020160009054906101000a900460ff169080600301905084565b6106206109e4565b6106286109e4565b60006106326109e4565b6000808673ffffffffffffffffffffffffffffffffffffffff1673ffffffffffffffffffffffffffffffffffffffff1681526020019081526020016000206000016000808773ffffffffffffffffffffffffffffffffffffffff1673ffffffffffffffffffffffffffffffffffffffff1681526020019081526020016000206001016000808873ffffffffffffffffffffffffffffffffffffffff1673ffffffffffffffffffffffffffffffffffffffff16815260200190815260200160002060020160009054906101000a900460ff166000808973ffffffffffffffffffffffffffffffffffffffff1673ffffffffffffffffffffffffffffffffffffffff168152602001908152602001600020600301838054600181600116156101000203166002900480601f0160208091040260200160405190810160405280929190818152602001828054600181600116156101000203166002900480156107d95780601f106107ae576101008083540402835291602001916107d9565b820191906000526020600020905b8154815290600101906020018083116107bc57829003601f168201915b50505050509350828054600181600116156101000203166002900480601f0160208091040260200160405190810160405280929190818152602001828054600181600116156101000203166002900480156108755780601f1061084a57610100808354040283529160200191610875565b820191906000526020600020905b81548152906001019060200180831161085857829003601f168201915b50505050509250808054600181600116156101000203166002900480601f0160208091040260200160405190810160405280929190818152602001828054600181600116156101000203166002900480156109115780601f106108e657610100808354040283529160200191610911565b820191906000526020600020905b8154815290600101906020018083116108f457829003601f168201915b5050505050905093509350935093509193509193565b60806040519081016040528061093b6109f8565b81526020016109486109f8565b815260200160001515815260200161095e6109f8565b81525090565b828054600181600116156101000203166002900490600052602060002090601f016020900481019282601f106109a557805160ff19168380011785556109d3565b828001600101855582156109d3579182015b828111156109d25782518255916020019190600101906109b7565b5b5090506109e09190610a0c565b5090565b602060405190810160405280600081525090565b602060405190810160405280600081525090565b610a2e91905b80821115610a2a576000816000905550600101610a12565b5090565b905600a165627a7a72305820ac414a6d32b9837add207b8cf973958301bb41387b4e86abb5f90fabbe3b67800029",
  "source": "pragma solidity ^0.4.18;\n\ncontract Tracer {\n  struct Unit {\n    string lon;\n    string lat;\n    bool passed;\n    string id;\n  }\n\n  mapping (address => Unit) public Tracks;\n\n  function UpdateTrail(address i, string lo, string la, bool p, string n) public {\n    Unit memory temp;\n    temp.lon = lo;\n    temp.lat = la;\n    temp.passed = p;\n    temp.id = n;\n    Tracks[i] = temp;\n  }\n  \n  function GetTrail(address i) public returns(string, string, bool, string) {\n      return (Tracks[i].lon, Tracks[i].lat, Tracks[i].passed, Tracks[i].id);\n  }\n}\n\n",
  "sourcePath": "/home/fanzy/git/living-knowledge-hack17/contracts/Tracer.sol",
  "compiler": {
    "name": "solc",
    "version": "0.4.18+commit.9cf6e910.Emscripten.clang"
  },
  "schemaVersion": "1.0.1",
  "updatedAt": "2017-12-04T17:45:14.172Z"
}