{
  "contractName": "Tracer",
  "abi": [
    {
      "constant": false,
      "inputs": [
        {
          "name": "longitude",
          "type": "string"
        },
        {
          "name": "latitude",
          "type": "string"
        },
        {
          "name": "p",
          "type": "bool"
        }
      ],
      "name": "UpdateTrail",
      "outputs": [],
      "payable": false,
      "stateMutability": "nonpayable",
      "type": "function"
    },
    {
      "constant": false,
      "inputs": [
        {
          "name": "lookup",
          "type": "address"
        }
      ],
      "name": "GetTrail",
      "outputs": [
        {
          "name": "",
          "type": "string"
        }
      ],
      "payable": false,
      "stateMutability": "nonpayable",
      "type": "function"
    }
  ],
  "bytecode": "0x6060604052341561000f57600080fd5b6106238061001e6000396000f30060606040526004361061004c576000357c0100000000000000000000000000000000000000000000000000000000900463ffffffff168063882ca9df14610051578063e7d10633146100fc575b600080fd5b341561005c57600080fd5b6100fa600480803590602001908201803590602001908080601f0160208091040260200160405190810160405280939291908181526020018383808284378201915050505050509190803590602001908201803590602001908080601f0160208091040260200160405190810160405280939291908181526020018383808284378201915050505050509190803515159060200190919050506101ae565b005b341561010757600080fd5b610133600480803573ffffffffffffffffffffffffffffffffffffffff16906020019091905050610315565b6040518080602001828103825283818151815260200191508051906020019080838360005b83811015610173578082015181840152602081019050610158565b50505050905090810190601f1680156101a05780820380516001836020036101000a031916815260200191505b509250505060405180910390f35b600080548060010182816101c2919061048b565b9160005260206000209001600033909190916101000a81548173ffffffffffffffffffffffffffffffffffffffff021916908373ffffffffffffffffffffffffffffffffffffffff1602179055505082600160003373ffffffffffffffffffffffffffffffffffffffff1673ffffffffffffffffffffffffffffffffffffffff16815260200190815260200160002090805190602001906102649291906104b7565b5081600260003373ffffffffffffffffffffffffffffffffffffffff1673ffffffffffffffffffffffffffffffffffffffff16815260200190815260200160002090805190602001906102b89291906104b7565b5080600360003373ffffffffffffffffffffffffffffffffffffffff1673ffffffffffffffffffffffffffffffffffffffff16815260200190815260200160002060006101000a81548160ff021916908315150217905550505050565b61031d610537565b6000600160008473ffffffffffffffffffffffffffffffffffffffff1673ffffffffffffffffffffffffffffffffffffffff16815260200190815260200160002081600001908054600181600116156101000203166002900461038192919061054b565b50600260008473ffffffffffffffffffffffffffffffffffffffff1673ffffffffffffffffffffffffffffffffffffffff1681526020019081526020016000208160010190805460018160011615610100020316600290046103e492919061054b565b50600360008473ffffffffffffffffffffffffffffffffffffffff1673ffffffffffffffffffffffffffffffffffffffff16815260200190815260200160002060009054906101000a900460ff168160020160006101000a81548160ff0219169083151502179055506040805190810160405280600581526020017f68656c6c6f000000000000000000000000000000000000000000000000000000815250915050919050565b8154818355818115116104b2578183600052602060002091820191016104b191906105d2565b5b505050565b828054600181600116156101000203166002900490600052602060002090601f016020900481019282601f106104f857805160ff1916838001178555610526565b82800160010185558215610526579182015b8281111561052557825182559160200191906001019061050a565b5b50905061053391906105d2565b5090565b602060405190810160405280600081525090565b828054600181600116156101000203166002900490600052602060002090601f016020900481019282601f1061058457805485556105c1565b828001600101855582156105c157600052602060002091601f016020900482015b828111156105c05782548255916001019190600101906105a5565b5b5090506105ce91906105d2565b5090565b6105f491905b808211156105f05760008160009055506001016105d8565b5090565b905600a165627a7a7230582034b5db7635782ef208eca1094ded882bf3d644daf6b0164ff044609e4d02e0da0029",
  "source": "pragma solidity ^0.4.18;\n\ncontract Tracer {\n  struct Unit {\n    string lon;\n    string lat;\n    bool passed;\n  }\n\n  address[] id;\n\n  mapping (address => string) lon;\n  mapping (address => string) lat;\n  mapping (address => bool) passed;\n\n  function UpdateTrail(string longitude, string latitude, bool p) public {\n    id.push(msg.sender);\n    lon[msg.sender] = longitude;\n    lat[msg.sender] = latitude;\n    passed[msg.sender] = p;\n  }\n  \n  function GetTrail(address lookup) public returns(string) {\n    Unit temp;\n    temp.lon = lon[lookup];\n    temp.lat = lat[lookup];\n    temp.passed = passed[lookup];\n    return 'hello';\n  }\n}\n\n",
  "sourcePath": "/home/fanzy/git/living-knowledge-hack17/contracts/Tracer.sol",
  "compiler": {
    "name": "solc",
    "version": "0.4.18+commit.9cf6e910.Emscripten.clang"
  },
  "schemaVersion": "1.0.1",
  "updatedAt": "2017-12-04T15:05:48.644Z"
}