{
  "contractName": "Tracer",
  "abi": [
    {
      "constant": false,
      "inputs": [
        {
          "name": "uid",
          "type": "string"
        },
        {
          "name": "i",
          "type": "uint256"
        }
      ],
      "name": "GetTrail",
      "outputs": [
        {
          "name": "",
          "type": "address"
        },
        {
          "name": "",
          "type": "string"
        },
        {
          "name": "",
          "type": "string"
        },
        {
          "name": "",
          "type": "string"
        },
        {
          "name": "",
          "type": "string"
        }
      ],
      "payable": false,
      "stateMutability": "nonpayable",
      "type": "function"
    },
    {
      "constant": false,
      "inputs": [
        {
          "name": "uid",
          "type": "string"
        },
        {
          "name": "lo",
          "type": "string"
        },
        {
          "name": "la",
          "type": "string"
        },
        {
          "name": "p",
          "type": "string"
        },
        {
          "name": "n",
          "type": "string"
        }
      ],
      "name": "UpdateTrail",
      "outputs": [],
      "payable": false,
      "stateMutability": "nonpayable",
      "type": "function"
    },
    {
      "constant": false,
      "inputs": [
        {
          "name": "uid",
          "type": "string"
        }
      ],
      "name": "GetLength",
      "outputs": [
        {
          "name": "",
          "type": "uint256"
        }
      ],
      "payable": false,
      "stateMutability": "nonpayable",
      "type": "function"
    },
    {
      "constant": false,
      "inputs": [
        {
          "name": "uid",
          "type": "string"
        }
      ],
      "name": "GetLast",
      "outputs": [
        {
          "name": "",
          "type": "address"
        },
        {
          "name": "",
          "type": "string"
        },
        {
          "name": "",
          "type": "string"
        },
        {
          "name": "",
          "type": "string"
        },
        {
          "name": "",
          "type": "string"
        }
      ],
      "payable": false,
      "stateMutability": "nonpayable",
      "type": "function"
    }
  ],
  "bytecode": "0x6060604052341561000f57600080fd5b610ff58061001e6000396000f300606060405260043610610062576000357c0100000000000000000000000000000000000000000000000000000000900463ffffffff16806307949c5c146100675780630f668ce5146102bd5780631ed9ca4a146104265780632af660f114610497575b600080fd5b341561007257600080fd5b6100cb600480803590602001908201803590602001908080601f016020809104026020016040519081016040528093929190818152602001838380828437820191505050505050919080359060200190919050506106e4565b604051808673ffffffffffffffffffffffffffffffffffffffff1673ffffffffffffffffffffffffffffffffffffffff16815260200180602001806020018060200180602001858103855289818151815260200191508051906020019080838360005b8381101561014957808201518184015260208101905061012e565b50505050905090810190601f1680156101765780820380516001836020036101000a031916815260200191505b50858103845288818151815260200191508051906020019080838360005b838110156101af578082015181840152602081019050610194565b50505050905090810190601f1680156101dc5780820380516001836020036101000a031916815260200191505b50858103835287818151815260200191508051906020019080838360005b838110156102155780820151818401526020810190506101fa565b50505050905090810190601f1680156102425780820380516001836020036101000a031916815260200191505b50858103825286818151815260200191508051906020019080838360005b8381101561027b578082015181840152602081019050610260565b50505050905090810190601f1680156102a85780820380516001836020036101000a031916815260200191505b50995050505050505050505060405180910390f35b34156102c857600080fd5b610424600480803590602001908201803590602001908080601f0160208091040260200160405190810160405280939291908181526020018383808284378201915050505050509190803590602001908201803590602001908080601f0160208091040260200160405190810160405280939291908181526020018383808284378201915050505050509190803590602001908201803590602001908080601f0160208091040260200160405190810160405280939291908181526020018383808284378201915050505050509190803590602001908201803590602001908080601f0160208091040260200160405190810160405280939291908181526020018383808284378201915050505050509190803590602001908201803590602001908080601f01602080910402602001604051908101604052809392919081815260200183838082843782019150505050505091905050610aba565b005b341561043157600080fd5b610481600480803590602001908201803590602001908080601f01602080910402602001604051908101604052809392919081815260200183838082843782019150505050505091905050610c77565b6040518082815260200191505060405180910390f35b34156104a257600080fd5b6104f2600480803590602001908201803590602001908080601f01602080910402602001604051908101604052809392919081815260200183838082843782019150505050505091905050610cee565b604051808673ffffffffffffffffffffffffffffffffffffffff1673ffffffffffffffffffffffffffffffffffffffff16815260200180602001806020018060200180602001858103855289818151815260200191508051906020019080838360005b83811015610570578082015181840152602081019050610555565b50505050905090810190601f16801561059d5780820380516001836020036101000a031916815260200191505b50858103845288818151815260200191508051906020019080838360005b838110156105d65780820151818401526020810190506105bb565b50505050905090810190601f1680156106035780820380516001836020036101000a031916815260200191505b50858103835287818151815260200191508051906020019080838360005b8381101561063c578082015181840152602081019050610621565b50505050905090810190601f1680156106695780820380516001836020036101000a031916815260200191505b50858103825286818151815260200191508051906020019080838360005b838110156106a2578082015181840152602081019050610687565b50505050905090810190601f1680156106cf5780820380516001836020036101000a031916815260200191505b50995050505050505050505060405180910390f35b60006106ee610d9e565b6106f6610d9e565b6106fe610d9e565b610706610d9e565b61070e610db2565b6000886040518082805190602001908083835b6020831015156107465780518252602082019150602081019050602083039250610721565b6001836020036101000a03801982511681845116808217855250505050505090500191505090815260200160405180910390208781548110151561078657fe5b906000526020600020906005020160a060405190810160405290816000820160009054906101000a900473ffffffffffffffffffffffffffffffffffffffff1673ffffffffffffffffffffffffffffffffffffffff1673ffffffffffffffffffffffffffffffffffffffff168152602001600182018054600181600116156101000203166002900480601f01602080910402602001604051908101604052809291908181526020018280546001816001161561010002031660029004801561088f5780601f106108645761010080835404028352916020019161088f565b820191906000526020600020905b81548152906001019060200180831161087257829003601f168201915b50505050508152602001600282018054600181600116156101000203166002900480601f0160208091040260200160405190810160405280929190818152602001828054600181600116156101000203166002900480156109315780601f1061090657610100808354040283529160200191610931565b820191906000526020600020905b81548152906001019060200180831161091457829003601f168201915b50505050508152602001600382018054600181600116156101000203166002900480601f0160208091040260200160405190810160405280929190818152602001828054600181600116156101000203166002900480156109d35780601f106109a8576101008083540402835291602001916109d3565b820191906000526020600020905b8154815290600101906020018083116109b657829003601f168201915b50505050508152602001600482018054600181600116156101000203166002900480601f016020809104026020016040519081016040528092919081815260200182805460018160011615610100020316600290048015610a755780601f10610a4a57610100808354040283529160200191610a75565b820191906000526020600020905b815481529060010190602001808311610a5857829003601f168201915b50505050508152505090508060000151816020015182604001518360600151846080015183935082925081915080905095509550955095509550509295509295909350565b610ac2610db2565b33816000019073ffffffffffffffffffffffffffffffffffffffff16908173ffffffffffffffffffffffffffffffffffffffff16815250508481602001819052508381604001819052508281606001819052508181608001819052506000866040518082805190602001908083835b602083101515610b565780518252602082019150602081019050602083039250610b31565b6001836020036101000a03801982511681845116808217855250505050505090500191505090815260200160405180910390208054806001018281610b9b9190610e10565b9160005260206000209060050201600083909190915060008201518160000160006101000a81548173ffffffffffffffffffffffffffffffffffffffff021916908373ffffffffffffffffffffffffffffffffffffffff1602179055506020820151816001019080519060200190610c14929190610e42565b506040820151816002019080519060200190610c31929190610e42565b506060820151816003019080519060200190610c4e929190610e42565b506080820151816004019080519060200190610c6b929190610e42565b50505050505050505050565b600080826040518082805190602001908083835b602083101515610cb05780518252602082019150602081019050602083039250610c8b565b6001836020036101000a0380198251168184511680821785525050505050509050019150509081526020016040518091039020805490509050919050565b6000610cf8610d9e565b610d00610d9e565b610d08610d9e565b610d10610d9e565b610d8b8660016000896040518082805190602001908083835b602083101515610d4e5780518252602082019150602081019050602083039250610d29565b6001836020036101000a038019825116818451168082178552505050505050905001915050908152602001604051809103902080549050036106e4565b9450945094509450945091939590929450565b602060405190810160405280600081525090565b60a060405190810160405280600073ffffffffffffffffffffffffffffffffffffffff168152602001610de3610ec2565b8152602001610df0610ec2565b8152602001610dfd610ec2565b8152602001610e0a610ec2565b81525090565b815481835581811511610e3d57600502816005028360005260206000209182019101610e3c9190610ed6565b5b505050565b828054600181600116156101000203166002900490600052602060002090601f016020900481019282601f10610e8357805160ff1916838001178555610eb1565b82800160010185558215610eb1579182015b82811115610eb0578251825591602001919060010190610e95565b5b509050610ebe9190610f5c565b5090565b602060405190810160405280600081525090565b610f5991905b80821115610f5557600080820160006101000a81549073ffffffffffffffffffffffffffffffffffffffff0219169055600182016000610f1c9190610f81565b600282016000610f2c9190610f81565b600382016000610f3c9190610f81565b600482016000610f4c9190610f81565b50600501610edc565b5090565b90565b610f7e91905b80821115610f7a576000816000905550600101610f62565b5090565b90565b50805460018160011615610100020316600290046000825580601f10610fa75750610fc6565b601f016020900490600052602060002090810190610fc59190610f5c565b5b505600a165627a7a72305820bb2374c7cc1a55a805c81f40af8ed14b9924ed2b446e9f7f20fa1b95aac10f380029",
  "source": "pragma solidity ^0.4.18;\n\ncontract Tracer {\n  struct Unit {\n    address handler;\n    string lon;\n    string lat;\n    string state;\n    string desc;\n  }\n\n  mapping (string => Unit[]) Tracks;\n\n  function UpdateTrail(string uid, string lo, string la, string p, string n) public {\n    Unit memory temp;\n    temp.handler = msg.sender;\n    temp.lon = lo;\n    temp.lat = la;\n    temp.state = p;\n    temp.desc = n;\n    Tracks[uid].push(temp);\n  }\n\n  function GetTrail(string uid, uint i) public returns(address, string, string, string, string) {\n    Unit memory temp = Tracks[uid][i];\n    return (temp.handler, temp.lon, temp.lat, temp.state, temp.desc);\n  }\n\n  function GetLength(string uid) public returns(uint) {\n    return Tracks[uid].length;\n  }\n\n  function GetLast(string uid) public returns(address, string, string, string, string) {\n    return GetTrail(uid, Tracks[uid].length - 1);\n  }\n}\n\n",
  "sourcePath": "/home/fanzy/git/living-knowledge-hack17/contracts/Tracer.sol",
  "compiler": {
    "name": "solc",
    "version": "0.4.18+commit.9cf6e910.Emscripten.clang"
  },
  "schemaVersion": "1.0.1",
  "updatedAt": "2017-12-06T21:39:14.238Z"
}