{
  "contractName": "Tracer",
  "abi": [
    {
      "constant": true,
      "inputs": [
        {
          "name": "",
          "type": "address"
        },
        {
          "name": "lo",
          "type": "string"
        },
        {
          "name": "la",
          "type": "string"
        },
        {
          "name": "p",
          "type": "bool"
        },
        {
          "name": "n",
          "type": "string"
        }
      ],
      "name": "Tracks",
      "outputs": [
        {
          "name": "lon",
          "type": "string"
        },
        {
          "name": "lat",
          "type": "string"
        },
        {
          "name": "passed",
          "type": "bool"
        },
        {
          "name": "desc",
          "type": "string"
        }
      ],
      "payable": false,
      "stateMutability": "view",
      "type": "function"
    },
    {
      "constant": false,
      "inputs": [
        {
          "name": "lo",
          "type": "string"
        },
        {
          "name": "la",
          "type": "string"
        },
        {
          "name": "p",
          "type": "bool"
        },
        {
          "name": "n",
          "type": "string"
        }
      ],
      "name": "UpdateTrail",
      "outputs": [
        {
          "name": "lon",
          "type": "string"
        },
        {
          "name": "lat",
          "type": "string"
        },
        {
          "name": "passed",
          "type": "bool"
        },
        {
          "name": "desc",
          "type": "string"
        }
      ],
      "payable": false,
      "stateMutability": "nonpayable",
      "type": "function"
    },
    {
      "constant": false,
      "inputs": [
        {
          "name": "i",
          "type": "address"
        }
      ],
      "name": "GetTrail",
      "outputs": [
        {
          "name": "",
          "type": "string"
        },
        {
          "name": "",
          "type": "string"
        },
        {
          "name": "",
          "type": "bool"
        },
        {
          "name": "",
          "type": "string"
        }
      ],
      "payable": false,
      "stateMutability": "nonpayable",
      "type": "function"
    }
  ],
  "bytecode": "0x6060604052341561000f57600080fd5b610a3d8061001e6000396000f300606060405260043610610057576000357c0100000000000000000000000000000000000000000000000000000000900463ffffffff168063beeaefab1461005c578063d452848414610248578063e7d1063314610336575b600080fd5b341561006757600080fd5b610093600480803573ffffffffffffffffffffffffffffffffffffffff169060200190919050506104cb565b604051808060200180602001851515151581526020018060200184810384528881815460018160011615610100020316600290048152602001915080546001816001161561010002031660029004801561012e5780601f106101035761010080835404028352916020019161012e565b820191906000526020600020905b81548152906001019060200180831161011157829003601f168201915b50508481038352878181546001816001161561010002031660029004815260200191508054600181600116156101000203166002900480156101b15780601f10610186576101008083540402835291602001916101b1565b820191906000526020600020905b81548152906001019060200180831161019457829003601f168201915b50508481038252858181546001816001161561010002031660029004815260200191508054600181600116156101000203166002900480156102345780601f1061020957610100808354040283529160200191610234565b820191906000526020600020905b81548152906001019060200180831161021757829003601f168201915b505097505050505050505060405180910390f35b341561025357600080fd5b610334600480803590602001908201803590602001908080601f0160208091040260200160405190810160405280939291908181526020018383808284378201915050505050509190803590602001908201803590602001908080601f01602080910402602001604051908101604052809392919081815260200183838082843782019150505050505091908035151590602001909190803590602001908201803590602001908080601f01602080910402602001604051908101604052809392919081815260200183838082843782019150505050505091905050610505565b005b341561034157600080fd5b61036d600480803573ffffffffffffffffffffffffffffffffffffffff169060200190919050506105f8565b6040518080602001806020018515151515815260200180602001848103845288818151815260200191508051906020019080838360005b838110156103bf5780820151818401526020810190506103a4565b50505050905090810190601f1680156103ec5780820380516001836020036101000a031916815260200191505b50848103835287818151815260200191508051906020019080838360005b8381101561042557808201518184015260208101905061040a565b50505050905090810190601f1680156104525780820380516001836020036101000a031916815260200191505b50848103825285818151815260200191508051906020019080838360005b8381101561048b578082015181840152602081019050610470565b50505050905090810190601f1680156104b85780820380516001836020036101000a031916815260200191505b5097505050505050505060405180910390f35b6000602052806000526040600020600091509050806000019080600101908060020160009054906101000a900460ff169080600301905084565b61050d610907565b84816000018190525083816020018190525082816040019015159081151581525050818160600181905250806000803373ffffffffffffffffffffffffffffffffffffffff1673ffffffffffffffffffffffffffffffffffffffff1681526020019081526020016000206000820151816000019080519060200190610593929190610944565b5060208201518160010190805190602001906105b0929190610944565b5060408201518160020160006101000a81548160ff02191690831515021790555060608201518160030190805190602001906105ed929190610944565b509050505050505050565b6106006109c4565b6106086109c4565b60006106126109c4565b6000808673ffffffffffffffffffffffffffffffffffffffff1673ffffffffffffffffffffffffffffffffffffffff1681526020019081526020016000206000016000808773ffffffffffffffffffffffffffffffffffffffff1673ffffffffffffffffffffffffffffffffffffffff1681526020019081526020016000206001016000808873ffffffffffffffffffffffffffffffffffffffff1673ffffffffffffffffffffffffffffffffffffffff16815260200190815260200160002060020160009054906101000a900460ff166000808973ffffffffffffffffffffffffffffffffffffffff1673ffffffffffffffffffffffffffffffffffffffff168152602001908152602001600020600301838054600181600116156101000203166002900480601f0160208091040260200160405190810160405280929190818152602001828054600181600116156101000203166002900480156107b95780601f1061078e576101008083540402835291602001916107b9565b820191906000526020600020905b81548152906001019060200180831161079c57829003601f168201915b50505050509350828054600181600116156101000203166002900480601f0160208091040260200160405190810160405280929190818152602001828054600181600116156101000203166002900480156108555780601f1061082a57610100808354040283529160200191610855565b820191906000526020600020905b81548152906001019060200180831161083857829003601f168201915b50505050509250808054600181600116156101000203166002900480601f0160208091040260200160405190810160405280929190818152602001828054600181600116156101000203166002900480156108f15780601f106108c6576101008083540402835291602001916108f1565b820191906000526020600020905b8154815290600101906020018083116108d457829003601f168201915b5050505050905093509350935093509193509193565b60806040519081016040528061091b6109d8565b81526020016109286109d8565b815260200160001515815260200161093e6109d8565b81525090565b828054600181600116156101000203166002900490600052602060002090601f016020900481019282601f1061098557805160ff19168380011785556109b3565b828001600101855582156109b3579182015b828111156109b2578251825591602001919060010190610997565b5b5090506109c091906109ec565b5090565b602060405190810160405280600081525090565b602060405190810160405280600081525090565b610a0e91905b80821115610a0a5760008160009055506001016109f2565b5090565b905600a165627a7a72305820a95d64ef648de012fb213c13387115811e51edd902361dc1470831d2c65f66f90029",
  "source": "pragma solidity ^0.4.18;\n\ncontract Tracer {\n  struct Unit {\n    string lon;\n    string lat;\n    bool passed;\n    string desc;\n  }\n\n  mapping (address => Unit) public Tracks;\n\n  function UpdateTrail(string lo, string la, bool p, string n) public {\n    Unit memory temp;\n    temp.lon = lo;\n    temp.lat = la;\n    temp.passed = p;\n    temp.desc = n;\n    Tracks[msg.sender] = temp;\n  }\n  \n  function GetTrail(address i) public returns(string, string, bool, string) {\n      return (Tracks[i].lon, Tracks[i].lat, Tracks[i].passed, Tracks[i].desc);\n  }\n}\n\n",
  "sourcePath": "/home/fanzy/git/living-knowledge-hack17/contracts/Tracer.sol",
  "compiler": {
    "name": "solc",
    "version": "0.4.18+commit.9cf6e910.Emscripten.clang"
  },
  "schemaVersion": "1.0.1",
  "updatedAt": "2017-12-05T09:52:44.177Z"
}